:100000000C942A000C9447000C9447000C94470071
:100010000C9447000C9447000C9447000C94470044
:100020000C9447000C9447000C9447000C945E0419
:100030000C9447000C9447000C9447000C94470024
:100040000C945F040C9447000C9447000C944700F8
:100050000C94470011241FBECFE5D8E0DEBFCDBF12
:1000600010E0A0E6B0E0EAE8FBE002C005900D92E7
:10007000A036B107D9F711E0A0E6B0E001C01D92AB
:10008000A230B107E1F70E940A010C94C4050C9458
:100090000000A3E0B0E0EFE4F0E00C949D0569837C
:1000A0007A838B83582F29813A814423A1F121300F
:1000B0003105A9F02130310540F022303105B9F089
:1000C0002330310509F062C01CC02BB381E090E001
:1000D00002C0880F991F5A95E2F7282B33C088B3C6
:1000E00002C0220F331F5A95E2F7822B36C025B388
:1000F00081E090E002C0880F991F5A95E2F7282B03
:1001000038C022B381E090E002C0880F991F5A9551
:10011000E2F7282B3AC021303105B1F0213031050A
:1001200038F022303105D9F02330310579F523C07C
:100130002BB381E090E002C0880F991F5A95E2F737
:10014000809528232BBB22C088B302C0220F331F07
:100150005A95E2F7922F9095892388BB17C025B353
:1001600081E090E002C0880F991F5A95E2F78095D0
:10017000282325BB0BC022B381E090E002C0880F8A
:10018000991F5A95E2F78095282322BBE2E0239637
:100190000C94B905A3E0B0E0E0EDF0E00C949D050F
:1001A00069837A838B83382F49815A814130510585
:1001B00071F04130510548F04230510589F043302B
:1001C000510581F080E090E018C029B30CC086B3DF
:1001D00002C0440F551F3A95E2F7842399270DC0BA
:1001E00023B301C020B381E090E002C0880F991FC3
:1001F0003A95E2F72823822F9927E2E023960C9480
:10020000B905C4988FB9779BFECF6FB9779BFECFA6
:10021000C49A0895A7E2B0E0E0E1F1E00C948D0506
:1002200081E090E09F838E8321E028879A878987E9
:1002300022E02B879D878C8783E08E8782E090E089
:100240009C838B831D829B8B8A8B26E02C8B9E8BC1
:100250008D8B87E08F8B198E188E2A8F1C8E1B8EAC
:100260008D8F188A1F8685E0898BB998C19ABA9AB2
:10027000C29ABB9AC39AA098A89AA69AAE9AA7982F
:10028000AF9AD69ADE9AD79ADF9AD59ADD9A41E04C
:100290006F85788989890E9449008E01025E1F4F0F
:1002A000F80111928F0141E0688D798D8A8D0E944D
:1002B000490040E0688D798D8A8D0E944900CE0109
:1002C00086960817190761F70E94F104789480E573
:1002D0008DB987B3806B87BB67E08BE00E9401011B
:1002E0006FE08AE00E94010111E0612F812F0E94DE
:1002F00001011F5F1930C9F761E08CE00E94010124
:1003000060E08FE00E94010110E060E470E0611B9A
:10031000710975956795759567958AE00E94010149
:100320006B817C818D810E94CA00882309F41F5F44
:1003300080E09DE70197F1F7103438F311E060E0B9
:10034000812F0E9401011F5F1930C9F76FE08AE019
:100350000E9401012224DD241FA2F1E0FEA312BAB3
:1003600011BAF0C040E069857A858B850E9449000A
:10037000DD2021F420B2F1E0DF2EDEC010B3822DAB
:1003800082958F70853009F44BC0863040F48330FD
:10039000A1F0843070F4823009F0CDC011C08730F4
:1003A00009F45DC0873008F456C0883009F0C3C036
:1003B00075C01F70612F8FE06EC0612F8AE06BC027
:1003C000412F4F70822D99278F7090709E01225E71
:1003D0003F4FE42FFF2712951F70612F7727892B3E
:1003E00069F4E20FF31F81E090E002C0880F991FCB
:1003F0006A95E2F78095208128230BC0E20FF31F56
:1004000081E090E002C0880F991F6A95E2F7208191
:10041000282B2083FE01E40FF11D668D842F3AC046
:10042000812F99279C01207F30708F709070892BCD
:1004300049F0E4E035952795EA95E1F7822F0E948F
:100440002B0479C074E0359527957A95E1F7822FD2
:100450000E94460470C01F70612F8CE01CC08EA1EA
:10046000813089F400E06EE1E62EF12CEC0EFD1EE9
:10047000F70111927F010F5F60E0802F0E94010160
:100480000830B1F71EA2822D8770FE01E80FF11D22
:10049000168F612F8F5F0E9401014DC0FEA1F130C8
:1004A00089F400E05EE1E52EF12CEC0EFD1EF70173
:1004B00011927F010F5F60E0802F0E9401010830E0
:1004C000B1F71EA2022D0770CC24DD244EE1E42EEC
:1004D000F12CEC0EFD1E812F99270C2C02C0959556
:1004E00087950A94E2F7402F5527F701208180FF76
:1004F00009C081E090E002C0880F991F4A95E2F799
:10050000282B0AC081E090E002C0880F991F4A950D
:10051000E2F780952823F7012083F70161917F019D
:100520008C2D8F5F0E9401010894C11CD11CF8E042
:10053000CF16D10481F6DD2441E069857A858B856B
:100540000E9449006E817F8188850E94CA008823AD
:1005500009F408CF81E0D81631F4EFA1EF5FEFA3E3
:10056000E13510F0DD241FA212BA8FEF81BB40E00D
:100570006F85788989890E9449008824992432EFFF
:10058000E32E30E0F32E22EA422E20E0522E9AEFA4
:10059000A92E90E0B92E8AEE682E80E0782E382CB5
:1005A00041E0688D798D8A8D0E94490040E0688D18
:1005B000798D8A8D0E94490041E06F85788989890B
:1005C0000E944900F7018081F201808340E06A893E
:1005D0007B898C890E94490041E06A897B898C89EA
:1005E0000E94490000E010E0C02E6D897E898F894D
:1005F0000E94CA00F7012081882351F481E090E035
:10060000002E02C0880F991F0A94E2F7282B0BC016
:1006100081E090E0002E02C0880F991F0A94E2F753
:1006200080952823F70120836C2D832D0E940A05D5
:10063000F5012081822F9927002E02C0959587957C
:100640000A94E2F780FF37C081E090E0002E02C0FC
:10065000880F991F0A94E2F7809528232083F301DD
:1006600060817727002E02C0759567950A94E2F79E
:100670006170232D4C2DCE0101960E94A00441E013
:100680006C857D858E850E944900898182BB40E012
:100690006C857D858E850E94490041E06C857D8555
:1006A0008E850E9449008A8182BB40E06C857D85F1
:1006B0008E850E94490041E06B8D7C8D8D8D0E945E
:1006C000490040E06B8D7C8D8D8D0E9449000F5F4D
:1006D0001F4F0830110509F087CF0894811C911C29
:1006E0000894E11CF11C0894411C511C0894A11CA5
:1006F000B11C0894611C711CF8E08F16910409F07C
:100700004ECF02E610E0EE24FF24F8018785813009
:1007100029F5438554856E2DCE0101960E94AB04C8
:1007200041E06C857D858E850E944900898182BB70
:1007300040E06C857D858E850E94490041E06C8596
:100740007D858E850E9449008A8182BB40E06C8550
:100750007D858E850E944900F80117860894E11C6A
:10076000F11C005F1F4FF4E0EF16F10471F6F7CDB6
:1007700089B78E7F89BF13BE35983798339808950F
:1007800080B7806880BF86B1876086B9359A379A0E
:10079000339A84E083BF89B7816089BF0895E2E618
:1007A000F0E011861086148613861286118210825C
:1007B000138212821582148217821682709680E04C
:1007C000E23AF80771F708950E94CF030E94C00330
:1007D0000895CF93DF932091600033279927082E47
:1007E00002C0359527950A94E2F720FF31C0DC015D
:1007F000E4E0AA0FBB1FEA95E1F7AE59BF4FED0148
:1008000088859985EA85FF27EE0FFF1FEA0FFB1FFA
:1008100020813181821B930B860F971F99878887D0
:10082000718360832B853C853E872D8796958795C0
:10083000969587959C878B878217930711F081E0A7
:100840008F87FD0182858F5F8287843008F0128652
:10085000DF91CF9108951F93182F8430A8F48091D1
:10086000600099278F709070892B11F40E94E40327
:1008700081E090E002C0880F991F1A95E2F720915D
:100880006000282B209360001F910895282F84304A
:10089000A0F481E090E002C0880F991F2A95E2F74A
:1008A00080952091600082238093600099278F704B
:1008B0009070892B11F40E94B803089518951F9227
:1008C0000F920FB60F9211241F932F933F934F93C4
:1008D0005F936F937F938F939F93AF93BF93EF93A8
:1008E000FF9364B1772785B1109161009927982F04
:1008F0008827682B792B812F0E94E9031F5F1093B3
:100900006100143010F01092610087B1807F87B9C8
:1009100097B1809161008F70982B97B9FF91EF91FB
:10092000BF91AF919F918F917F916F915F914F9107
:100930003F912F911F910F900FBE0F901F90189510
:10094000FC011082662311F081E080834295407F94
:10095000422B41830895FC01852F99278370660FF0
:10096000660F6C706061862B808341830895FC0163
:10097000606260834295407F422B41830895FC0171
:1009800080E3808361830895FC0180E48083118289
:10099000662311F081E081830895FC0180E5808366
:1009A000772794E0660F771F9A95E1F780E0411171
:1009B00081E0862B81830895FC0180E6808311828B
:1009C000662311F081E081830895FC016F706067F8
:1009D000608341830895FC016F7060686083418388
:1009E0000895CF93DF93E2EFF0E082EA90E0CAEE61
:1009F000D0E04AEF50E01192DC011D92CD01199236
:100A0000DA011D92AD01B0E0EA3FFB07A1F7DF91EB
:100A1000CF910895CF93DF93A82FBB27FD01EE5010
:100A2000FF4F50817727FD01EE55FF4F80818527CD
:100A30009927062E02C0959587950A94E2F7ED0155
:100A4000C651DF4F80FF2FC02881852F822799272D
:100A5000062E02C0959587950A94E2F780FF5AC04A
:100A6000852F9927062E02C0959587950A94E2F75F
:100A700080FF0DC081E090E002C0880F991F6A9549
:100A8000E2F7A650BF4F8C93282B288343C093E0F6
:100A9000AA0FBB1F9A95E1F7A655BF4FA60FB71F28
:100AA0008CE08C9337C04881852F84279927062EA8
:100AB00002C0959587950A94E2F780FF2BC0FD014F
:100AC00083E0EE0FFF1F8A95E1F7E655FF4FE60F33
:100AD000F71F80818823F1F0815080838823D1F42F
:100AE00021E030E0062E02C0220F331F0A94E2F705
:100AF000A650BF4F2C93852F992702C095958795B7
:100B00006A95E2F780FF02C0422B03C0822F8095D6
:100B100048234883DF91CF9108952F923F924F92BF
:100B20005F926F927F928F929F92AF92BF92CF927D
:100B3000DF92EF92FF920F931F93CF93DF93CDB786
:100B4000DEB7CA1BDB0B0FB6F894DEBF0FBECDBFFE
:100B500009942A88398848885F846E847D848C84CF
:100B60009B84AA84B984C884DF80EE80FD800C81D8
:100B70001B81AA81B981CE0FD11D0FB6F894DEBFBB
:0A0B80000FBECDBFED010895FFCFB9
:00000001FF
